:060000000A128A110C280F
:10000800FE00030EF0000A08F1000A128A112C29DA
:100018000A128A110F280A128A114A210A128A1111
:10002800F7000A128A114B210A128A11F8000A12E3
:100038008A114C210A128A11F9000A128A114D21DB
:100048000A128A11FA00AC01AD01AE0183010A124D
:100058008A11C82883120313A301A401A501A101D1
:10006800A10AA201A20A7308A50025087205A50025
:1000780025087739A5002508F40004300310F40C8E
:10008800FF3E031D42287408A30025080F39A40069
:10009800B52824080319512852288828073024062F
:1000A8000319572858288828230803195C285D282D
:1000B800882807302306031D62286328AB28882870
:1000C8007A082507F40079087407A5009E282508F2
:1000D8007706A5009E280F307705F40025087407D9
:1000E800A5009E287808F5007708F4000430FF0082
:1000F800750DF50CF40CFF0B7C280F307405F60019
:1001080025087607A5009E282208F400F501750841
:10011800003A031990289E287408003A03196428A5
:10012800013A03196B28033A03196F28013A031996
:1001380076289E2803302206031DA328A428A62873
:10014800A2013C280130F4007408A2073C28730877
:10015800F8007208F7002408FA002308F900A10142
:100168003C282108031DB928BA284D282308F40083
:1001780003300310F40DFF3E031DBD280310740D5A
:100188002404A000200808008316031301138B170A
:100198000B168312031310109010CF30900583169E
:1001A800031388018830831203138800FF308316F5
:1001B8000313860083120313AB01A9010E29A901B9
:1001C800A90A0F302B06031DEA28EB28ED28AB01FE
:1001D800F1280130A6002608AB072B08A60003303B
:1001E8000310A60DFF3E031DF4280310260D2B0453
:1001F800AA002A088800023083120313A8000430DA
:10020800A700B930A600A60B0729A70B0729A80B3A
:1002180007290E29831203132E08031D14291529F3
:10022800E3282903031D19291A290E292D08F3008B
:100238002C08F2000A128A112E200A128A1183123F
:100248000313AA002A0888000E290A128A110C280A
:10025800831203132E080319322934290130352952
:100268000030AE002E0803193A293B293D29101405
:10027800422910100F08AD000E08AC008B10710851
:100288008A00700E8300FE0E7E0E0900AA34AA347E
:0402980006340334F1
:08400000FF3FFF3FFF3FFF3FC0
:02400E007A3FF7
:00000001FF
